:020000040800F2
:10000000581C00209D010008511200084D120008E4
:100010004F1200084B1100084913000800000000AF
:100020000000000000000000000000008512000831
:100030004D1100080000000083120008891200081A
:10004000B7010008B7010008B7010008B7010008B0
:10005000B7010008B7010008B7010008B7010008A0
:10006000B7010008B7010008B7010008B701000890
:10007000B7010008B7010008B7010008B701000880
:10008000B7010008B7010008B7010008B701000870
:10009000B7010008B7010008B7010008B701000860
:1000A000B7010008B7010008B7010008B701000850
:1000B000A5120008B701000800000000B701000801
:1000C000B70100080000000000000000B7010008B0
:1000D00000000000B7010008B7010008B7010008E0
:1000E000B7010008B7010008000000000000000090
:1000F0000000000000000000000000000000000000
:1001000000000000000000000000000000000000EF
:100110000000000000000000B7010008B70100085F
:1001200000000000000000000000000000000000CF
:1001300000000000000000000000000000000000BF
:10014000B7010008B701000800000000000000002F
:10015000000000000000000000000000000000009F
:10016000000000000000000000000000000000008F
:10017000000000000000000000000000000000007F
:1001800000000000B7010008DFF80CD000F00CFD03
:100190000048004731170008581C002006488047D7
:1001A00006480047FEE7FEE7FEE7FEE7FEE7FEE75C
:1001B000FEE7FEE7FEE7FEE795120008890100086A
:1001C0002DE9FE43994615468846074601AC0229AB
:1001D00042D3002D40D000200290A8F101004FF042
:1001E000FF36009022E000FB057201FB057011460E
:1001F0004A469047002805DC54F82600304444F86D
:10020000260013E060682A4600FB057154F8040CD0
:1002100000FB057007E00B7890F800C001F801CBF7
:1002200000F8013B521E002AF5D1764254F8040C26
:1002300061688842D7DC4B462A463846FFF7C0FF44
:1002400054F8040C4B46A8EB0001401C00FB057061
:100250002A46491EFFF7B4FFBDE8FE830FB400B580
:1002600089B00BA800906A4603480A9900F0B2FAD8
:1002700009B05DF814FB0000000000202DE9FF5FCD
:100280001D464FF0FF3BD5E9014691465F464FF0D2
:100290000008A9697F1C01988847296A8246884717
:1002A0000028F6D1BAF1FF3F0CD024F4C064002E30
:1002B00019DD600614D5BAF12B0F09D0BAF12D0F54
:1002C0000ED103E0584604B0BDE8F09F44F48064CA
:1002D000A9697F1C01988847761E8246002E02DDA0
:1002E000BAF1300F03D0B9F1000F26D032E0A9697E
:1002F000761E44F400747F1C019888478246002EC5
:1003000005DDBAF1780F06D0BAF1580F03D0B9F174
:10031000000F10D01EE0B9F1000F02D0B9F1100F9C
:1003200018D1A969761E24F400747F1C01988847AF
:100330008246102002E0082000E00A20814609E001
:1003400008FB0908A969761E44F400747F1C019813
:1003500088478246002E05DD4946504600F02BFABC
:100360000028EDDAE96901988847A00502D46FF00A
:100370000100A8E7E00725D1600613D5600502D586
:10038000C8F1000000E0404629680A1D2A6009689B
:10039000220501D5087015E0220701D5088011E07B
:1003A00008600FE02868011D29600068210502D55A
:1003B00080F8008006E0210702D5A0F8008001E067
:1003C000C0F8008038467EE72DE9FF4F087883B0FB
:1003D0009946FF2805D0491C2D2804D00024002070
:1003E00008E000200BE00124F9E700EB800003EBBC
:1003F0004000491C0B78FF2BF7D104B14042002389
:100400000293147819461D462D2C01D02B2C04D1B3
:10041000521C2D2C13D000240294AA461478FF2CD1
:100420000FD00A25A3FB057801FB05814FF0000CD6
:1004300003FB0C11521CE3194AEB0101EEE7012406
:10044000EAE7814453EA010002D019F5C87F06DAD1
:1004500003980021C0E9001107B0BDE8F08F002526
:10046000AE4E2F46DFF8B882184600F045FBCDE9C6
:100470000001B9F1000002DAC9F1000400E004460D
:100480000023A74A1AEB030B42EB045A12E0E007E1
:1004900007D02A4633463846414600F04CFA074614
:1004A00088462A4633461046194600F044FA054667
:1004B0000E466410002CEAD1DDE90001B9F1000F0D
:1004C0005A46534606DA00F0A8FA3A46434600F088
:1004D000A4FA05E000F02FFA3A46434600F02BFA62
:1004E000029A0AB181F00041039AC2E90001B3E720
:1004F0002DE9FF4F1F468DB0D7E901464FF0FF3879
:100500002E2045464FF000090B90B9696D1C0E98DE
:100510008847396A824688470028F6D1BAF1FF3FFA
:100520000AD024F4D064002E11DDBAF12B0F08D0CC
:10053000BAF12D0F0BD102E0404611B08DE744F423
:100540008064B9696D1C0E9888478246761E69469C
:10055000600501D52D2000E02B208DF8000001F171
:10056000010B0DF1200809E0B9696D1C0E98884750
:1005700082460F9844F40074761E0560002E02DD5A
:10058000BAF1300FF0D00B998A453ED144F0800487
:1005900006E00F99681CA9F1010944F40074086091
:1005A000B9696D1C761E0E98884782463028F0D0B7
:1005B0002BE00B998A4505D1200603D444F0800432
:1005C000761E18E0504601F041FD08B30DF113020C
:1005D000761EAAF1300044F40074934506D20BF85D
:1005E000010B200607D5A9F1010003E0200602D483
:1005F00009F101008146A00502D50F99681C086029
:10060000B9696D1C0E9888478246002ED1DC53E0F4
:10061000002E51DDBAF1650F02D0BAF1450F4BD172
:10062000A00549D5B9696D1C24F44074761E0E9856
:1006300088478246002E0CDD2B2804D0BAF12D0FFE
:1006400007D144F48074B9696D1C0E9888478246BE
:10065000761EE00501D52D2100E02B2108F8011BB5
:10066000CDF82C8021E00DF12901761E44F40074B0
:1006700088450CD2AAF1300010F0FF0088F8000085
:1006800002D10B99884509D908F1010806E0E00577
:1006900001D5244801E042F20F708146B9696D1C12
:1006A0000E98884782460F980560002E04DD50465C
:1006B00001F0CCFC0028D6D1F9690E988847FF20BC
:1006C0008BF8000088F800000020069007904B4649
:1006D0006A4608A906A8FFF777FEA00502D46FF0C6
:1006E00001002AE714F0240F0AD0E00714D1DDE955
:1006F00006123868031D3B600068C0E900120BE079
:10070000DDE9060100F034FA0146E00704D138685B
:10071000021D3A600068016028460EE700001440A0
:100720000000F03FF1D8FFFF30B50B460146002036
:100730002022012409E021FA02F59D4205D303FAA3
:1007400002F5491B04FA02F52844151EA2F1010224
:10075000F1DC30BD2DE9F05F0546002092469B4656
:1007600088460646814640241BE0284641464746C7
:10077000224600F050FA53465A46C01A914110D30F
:1007800011461846224600F037FA2D1A67EB010889
:100790004F4622460120002100F02EFA17EB0009F7
:1007A0004E41201EA4F10104DFDC484631462A46B2
:1007B0004346BDE8F09F3A2800D2303820F02002AE
:1007C000412A01D3A2F13700884201D34FF0FF3014
:1007D00070470000024B9361024BD36100F044BAB2
:1007E000AD150008E90B00082DE9FE4F804681EAAF
:1007F0000300C00F0C46009021F0004123F000459B
:10080000B8EB0200A94105D24046214690461C465D
:100810000B46024623F00040104347D0270DC7F394
:100820000A00C3F30A510290401A019040286BDA83
:10083000C3F3130040F4801B0098924620B10023BC
:10084000D2EB030A63EB0B0B01985946C0F140024F
:10085000504600F0D1F906460D4650465946019AD9
:1008600000F0E9F910EB08006141002487EA115219
:1008700084EAE7731A4340D0009A62B3019A012ACE
:100880004FEA075215DC001B61EB02014FF00042FA
:1008900002EA0752CDE90042001C41F580113246C0
:1008A0002B4600F035FA03B0BDE8F08F40462146F4
:1008B000F9E7001B61EB0201001C41F580130018F1
:1008C0005B412018A2F5001747EB030140EAD57001
:1008D000B6196D4111E06D084FEA360645EAC0755C
:1008E0004FEA0752001B61EB0201001C41F5801129
:1008F00049084FEA30000019514132462B4603B0F7
:10090000BDE8F04F00F0F5B9009801224000002347
:10091000D0EB020263EBE073009821464FEAE074EB
:10092000B8EB000061EB0401E9E783F000435BE70B
:1009300081F0004158E72DE9FE4F81EA030404F0FD
:10094000004421F0004100944FF0000B23F00043DD
:1009500050EA01045ED052EA03045BD0C3F30A54A8
:10096000C1F30A552C44A4F2F3340194A0FB0254C1
:10097000C1F3130141F48011C3F3130343F4801353
:1009800001FB024400FB034E840A970A44EA8154A7
:1009900047EA8357A4FB076802958D0A05FB078584
:1009A0004FEA932C04FB0C542705029D4FEA06588E
:1009B00047EA1637B5EB08056EEB070C870E920E6B
:1009C00047EA811742EA8312A7FB0201B6EB0B014B
:1009D00064EB00042B0D43EA0C335E1844EB1C500F
:1009E000DA465146E7FB0201C5F313044FEA0B3325
:1009F00043EA14534FEA0432019C43EA0603A4F18C
:100A00000C040294009CCDE900B400F081F903B01D
:100A1000BDE8F08F00200146F9E72DE9F04D81EAAD
:100A2000030404F0004B21F0004514464FF0000A87
:100A300023F0004150EA050220D054EA01021DD003
:100A4000C5F30A570246C5F31303C1F31300C1F3FC
:100A50000A5640F4801543F48013A7EB0608101BD8
:100A6000D64608F2FD3873EB050002D308F1010801
:100A700001E092185B41B8F1000F03DA0020014653
:100A8000BDE8F08D00204FF48011064684460EE04C
:100A9000171B73EB050705D3121B63EB0503064316
:100AA0004CEA010C49084FEA300092185B4150EAC9
:100AB0000107EDD152EA030012D082EA040083EA72
:100AC0000501084305D0101BAB4106D201220023CB
:100AD00006E000224FF0004302E06FF001025310E5
:100AE0001AEB06004CEB085110EB0A0041EB0B012E
:100AF000BDE8F04D00F0FDB80EB540F23342029271
:100B00000022CDE90022134600F002F903B000BD37
:100B1000C1F30A52C1F3130140F2FF3341F48011D3
:100B20009A4202DA00200146704740F233439A426B
:100B3000A2F2334202DC524200F06DB800F05CB821
:100B400030B5041E71F1000404DB4FF00044404254
:100B500064EB0101141E73F1000405DB1C464FF029
:100B60000043524263EB0403994208BF904230BDF8
:100B700001F0004330B421F0004150EA010206D0F8
:100B80000A0DA2F56072C1F31301002A02DC30BC29
:100B900000207047440F44EAC104C100E01830BC93
:100BA00000EBC25000F06EB8064C074D06E0E0685E
:100BB00040F0010394E8070098471034AC42F6D3A4
:100BC000FFF7E6FACC270008EC270008094910B522
:100BD00008784C1C18B1401E0870205C10BD002124
:100BE0000720ABBE207010BD02490878421C0A7075
:100BF000704700000C000020202A04DB203A00FA95
:100C000002F1002070479140C2F1200320FA03F363
:100C1000194390407047202A04DB203A21FA02F061
:100C20000021704721FA02F3D040C2F12002914026
:100C3000084319467047202A06DBCB17203A41FAB1
:100C400002F043EAE07306E041FA02F3D040C2F159
:100C50002002914008431946704700000268114481
:100C60001378016018467047D16004495161044906
:100C7000116200211161114600F09EB85D0C000860
:100C8000AD0D00080029A8BF7047401C490008BFEF
:100C900020F00100704710B4B0FA80FC00FA0CF0AC
:100CA00050EA010404BF10BC704749B1CCF12004E4
:100CB00021FA04F411FA0CF118BF01212143084371
:100CC000A3EB0C01CB1D4FEA00614FEA102042BF9D
:100CD000002010BC704700EBC35010440029A4BF93
:100CE00010BC7047401C490008BF20F0010010BC38
:100CF000704710B5141E73F1000408DA401C41F16E
:100D0000000192185B411A4301D120F0010010BD8F
:100D10002DE9F04D92469B4611B1B1FA81F202E005
:100D2000B0FA80F220329046FFF766FF04460F4685
:100D300040EA0A0041EA0B0153465A46084313D0E1
:100D4000114653EA010019D0C8F140025046FFF79E
:100D500062FF05460E46504659464246FFF74CFF95
:100D6000084305D0012004E020463946BDE8F08D57
:100D70000020054346EAE0762C4337430A98630592
:100D8000E40AA0EB08000022FD0A44EA47540A30B6
:100D900002D500200146E9E7010510196941DDE9A6
:100DA000084500196941BDE8F04DA2E7C0B24FF413
:100DB000F05100F097B900002DE9F34F8BB04FF0E0
:100DC000000801F10C000C464FF0010B46460DF1F6
:100DD000080A01906269012101989047051E2DD0F3
:100DE000252D2CD0216A8847C0B162690121019864
:100DF0009047216A88470028F7D1411E626901980F
:100E0000904700E0761CA1690B988847216A8847C3
:100E10000028F7D1E1690B988847DBE7A1690B98B7
:100E200088470746A84201D1761CD3E7E1690B98B1
:100E300088477F1C02D1B8F1000F6FD046E1002730
:100E400062693D463946019890472A2804D1626973
:100E50000121019890470125DFF884926269012100
:100E600001989047A0F130010A290AD24F45E5DCEC
:100E700007EB870100EB4107303FDFD445F0100559
:100E8000ECE7E90601D46FF000476C280AD04C2843
:100E900014D0682815D06A280DD074281CD07A2860
:100EA0001AD01DE062690121019890476C2802D098
:100EB00045F0040514E045F002050DE045F020057D
:100EC0000AE06269012101989047682802D045F044
:100ED000080505E045F40065626901210198904725
:100EE000C4E9015765283DD019DC58287AD00CDCBC
:100EF000452837D004DC252826D0412831D131E0DF
:100F000046282FD047282CD12CE05B2877D06128A9
:100F100028D063287CD0642823D15AE0D0E06F2801
:100F200048D008DC66281DD067281BD0692821D04E
:100F30006E2816D127E0702845D0732868D0752810
:100F400047D078280DD14DE0A1690B988847054618
:100F500025283FF469AFE1690B9888476D1C3FF481
:100F60006AAFB3E023466A466FF001000B99FFF7C2
:100F7000BFFA9EE045F040006060A80723464FF0AE
:100F8000000236D43EE0E8077FF447AF2068011D39
:100F900021600068290501D506701BE7290701D5E6
:100FA000068017E7A90703D5F117C0E9006111E72B
:100FB00006600FE745F040006060A80723464FF049
:100FC000080216D41EE040F60E0125EA010060601A
:100FD00016E045F040006060A80723464FF00A0283
:100FE00007D40FE045F040006060A80708D523460D
:100FF00010226FF001000B99AFF3008059E007E079
:10100000234610226FF001000B99FFF737F950E0EB
:101010004FF000094F464B46632802D05B2806D0AC
:1010200040E0E80601D40120A06001273AE06269AF
:101030000121019890475E2805D14FF001096269AE
:10104000494601989047216939B900210A4653461B
:1010500043F82120491C0829FADBB0B3216969B99A
:10106000C11700EBD16253110AEB830122F01F027A
:10107000821A01200B68904003430B6062690121D2
:10108000019890475D28E8D1B9F1000F09D0002000
:10109000514651F82020D24341F82020401C082816
:1010A000F7DB02AB224600976FF001000B99AFF31C
:1010B000008000280CDA401C08D1BBF1000F05D0DD
:1010C0004FF0FF300DB0BDE8F08FFFE74046F9E785
:1010D000E90701D108F1010806444FF0000B79E659
:1010E000CCCCCC0C7F2801D9002208E0064A02EBC8
:1010F0005002C007127800D1120902F00F0201203D
:1011000090400840704700008A27000840EA010329
:101110009B0703D009E008C9121F08C0042AFAD2AD
:1011200003E011F8013B00F8013B521EF9D2704771
:101130000EB540F2334102910021CDE900110A467B
:101140000B46FFF7E5FD03B000BDFEE77047EFF388
:10115000108072B6FEE700007A4901308A688B6819
:101160009B1A8342FBD37047B0B51C494FF47A7386
:101170004A68B2FBF3F20023013AB3EB126F1ED1BF
:101180000F4CF02562600F4AD575A36007230F2826
:10119000236014D813684FF0FF35C3F30223DC1E1D
:1011A00083F0070338BF0024042B28BF042305FA6B
:1011B00003F320EA0303A3401B01D3750860B0BD0D
:1011C00010E000E00CED00E00448054905A240688D
:1011D0000968C1F30221515CC8407047100000202B
:1011E00004100240000000000102030410B50C4985
:1011F0000C480A6802F00C03082B08D1C2F38343A1
:1012000009A4896AD203E35C02D40F48584310BD95
:1012100001F00F0108A2515CB0FBF1F0584310BD82
:101220000410024000127A000203040506070809B0
:101230000A0B0C0D0E0F101001020304050607081F
:10124000090A0B0C0D0E0F1000093D00FEE7FEE72A
:10125000FEE710ED011A30EE010AB6EE001A20EE9C
:10126000010A704722466FF07E43404600F01CB8EA
:101270004FF6FF7300F018B8504641460422FEF7BF
:101280009FBF704770470000F74881680131816057
:10129000704700BF0248016841F470010160704767
:1012A00088ED00E07047000070B50468EE4DE66917
:1012B0000E408E4211D0AE68B61A9E420FD82668F4
:1012C0007607F4D5E66936070BD4E6693605EED520
:1012D000032120224FF4006306E0002130E00321C7
:1012E0002EE00121082308222362036853E8003F0F
:1012F000046823F4907344E80035002DF5D10368A9
:1013000053E8023F046823F0010344E80235002D4E
:10131000F5D1036E012B09D1036853E8003F04683F
:1013200023F0100344E80035002DF5D12023C0F848
:10133000803000230366836680F87830C0F884200C
:10134000084670BD18000020FEE700002DE9F84FA8
:1013500004AF2DED028BC4B0884C40F2E1416E46E3
:1013600094ED001A201D21EE010A39B1B0EC012ADA
:10137000013902EE020A31EE021AF6E79FED808A89
:1013800081EE082A80EE081A02EE421AB1EEC10A76
:10139000B4EE400AF1EE10FA80F1EA809FED791A7E
:1013A0000120002140F2E24C06F10C0E0022002345
:1013B00020EE010A63451AD060B194ED001AB4EE34
:1013C000401AF1EE10FA05DD4EF82130013100200F
:1013D000012209E0132A4FF00005C8BF012508B11A
:1013E000012001E00132284604340133E2E70229FA
:1013F00006DCCD4800214FF07E52C0E90021AFE06D
:10140000A1F101080720C6F808D000EB880020F001
:101410000700ADEB0005AD46002142467AB10EEB68
:1014200001035EF80100013A5B68181A00EE100A29
:1014300068180431B8EEC00A80ED000AEEE7072014
:1014400000EB880020F00700ADEB0004A546ADEBF3
:10145000000AD5464FEA8809504629464A46FFF712
:1014600055FE494BFFF708FF022098FBF0FB18F0F0
:10147000010171600AEB8B0090ED000A01D1FFF7CA
:10148000E8FE0020002141450CDA2B182218043018
:10149000013193ED001A31EE401AB0EEC11A82ED1F
:1014A000001AF0E7072000EB880020F00700ADEB02
:1014B000000AD546504621464A46FFF727FE324BE2
:1014C000FFF7DAFE0AEB8B00716890ED000A09B9AC
:1014D000FFF7BFFE9FED2D1A0020B0EE002A00217D
:1014E000414516DAB5EE400AF1EE10FA08D094ED57
:1014F000003A83EE003AB4EE423AF1EE10FA04DA22
:1015000095ED003A013031EE031A0435043401310F
:10151000E6E7012804D19FED1D1AB7EE000A18E096
:1015200000EE100A9FED1A2A9FED183AB8EEC00A95
:1015300081EE000A88EE001AB7EE000AB4EE421AF5
:10154000B0EE431AF1EE10FAC4BFB0EE401AB0EE9E
:10155000430A754880ED000A80ED011AD6F808D0DC
:10156000A7F11804A546BDEC028B01B0BDE8F08FD1
:10157000B0EE410A00F076FC10E700BFD00000207A
:1015800000409C4466660640951500080000000077
:101590003333134191ED000A90ED001A31EE400A09
:1015A000BDEEC00A10EE100A704700002DE9FC41A4
:1015B0004E4C0025D4F88000202851D12220C4F8B8
:1015C00084505949C4F8800001202566A4F85800C9
:1015D000D1F80880A4F85A00A06898B1B0F1805FF3
:1015E00016D00DF10707B0F5805F18D12069FF25EF
:1015F00000281CBF384600273E4608BF40F2FF15B2
:1016000007460DE020697F25002808BFFF2504E07C
:1016100020693F25002808BF7F250DF10707002618
:10162000A4F85C50B4F85A00A8B1204620214246E4
:10163000FFF71EFE78B92068808C284017B107F8A4
:10164000010B02E026F8020B0027B4F85A0001381B
:10165000A4F85A00E6E72020C4F880009DF807505F
:101660002846BDE8FC8100BF18000020F8B51F4CDB
:101670000090E06F202836D1002621202A49C4F8A6
:101680008460E0670120A4F850008D68A4F852003F
:10169000A068216980F4805050EA010768460CBFB9
:1016A00006460746B4F85200B0B1204680212A46CB
:1016B000FFF7DEFDA8B9206817B117F8011B04E099
:1016C00036F8021B00276FF35F210185B4F8520042
:1016D0000138A4F85200E5E7044840212A46FFF704
:1016E000C7FD2020E0670098F8BD00BF480000203B
:1016F00018B50C4A0C4B1068986851689468013111
:101700000C1B00941468E40303D5986892688A1A45
:101710000092009B4FF47A725343B3FBF1F100FB4C
:10172000021018BD10E000E01800002000000000CA
:1017300082B00020E54CE64A4FF6FF010090206899
:1017400040F01000206010680840E2490843106033
:101750000020FFF709FDE04F786940F00100786153
:10176000786900F0010001900198B86940F080505C
:10177000B861B86900F0805001900198386810F0A5
:101780000C0F07D0386800F00C00082844D13868E6
:10179000C00341D457F8040C57F8040C102161F32E
:1017A000C70047F8040C386800F00C00082842D144
:1017B000386800F47410B0F5601F5CD1206810F038
:1017C000060F0AD12068022161F302002060206820
:1017D00000F00700022840F0D780386820F0F000C1
:1017E000386057F8040C800140F1CE80386802213F
:1017F000DFF8F88561F3010041F288313860D8F8EC
:1018000008003A6802F00C02082A38D0D8F80820FC
:10181000121A8A42F5D9B7E0B04801210160DFF819
:10182000CC05816857F8042C9207B5D48268521A07
:10183000022AF7D91FE0A94900200866DFF8AC05A5
:10184000826857F8043C9B0104D583689B1A022BDD
:10185000F7D910E03A6822F4741202F560123A6087
:1018600001220A66816857F8042C9201A6D4826886
:10187000521A022AF7D9EFF3108072B6FEE72068F9
:1018800000F00700032809D32068022161F3020059
:101890002060206800F00700022875D13868042114
:1018A00061F30A203860386820F460503860FFF730
:1018B0009DFC39680FF23852C1F30311515CC840E6
:1018C000DFF83C1548600868FFF74EFC38690022D5
:1018D00004F5805140F480003861386900F48000DC
:1018E00001900198386940F4003038610120C8E95E
:1018F0000822A8F81020C8F80C10C8F82C00396984
:1019000001F400310191019998F8291051B988F832
:101910002820396941F040013961396901F04001FD
:101920000191019902216E4BDFF8D8946D4C4FF470
:10193000807E88F829106C49CB600B6823F018036F
:101940000B604FF0FF338B600B6823F060030B607C
:101950000B6823F080030B6088F829000C204FF4FB
:10196000E131C9E90822C9E90222C9E906E2C9E967
:101970000041C9E90420D9F87C1049B14FF0000CAE
:1019800000240021002567E0EFF3108072B6FEE727
:101990000022564B56494FF0904B4FF0000C89F8FF
:1019A00078204FF00009B86940F40030B861B86998
:1019B00000F4003001900198386940F4003038613B
:1019C000386900F4003001900198B9F1100F37D058
:1019D000012000FA09FE48F206001EEA000F29D095
:1019E0000320D3F804A000FA02F80F2048EA0A0600
:1019F0005E601E6826EA0E061E609E6826EA0806DD
:101A00009E600CF01C0600FA06F46FF0030000EA7A
:101A10005900455825EA04040725B5402C43022502
:101A2000445005FA02F0DBF8004024EA08042043A1
:101A3000CBF8000002320CF1040C09F10109C4E7F3
:101A4000DFF8C093DFF8A483D9E9025CD9E9041078
:101A5000D9E906E4D9F820202426EB4B2943EB4DA5
:101A6000C9F87C6008431E6826F001061E601968EC
:101A70002940084320431860586820F4405040EA49
:101A80000C00586042EA0E00996821F43061084366
:101A90009860FFF799FBB4F5004F2BD1D24DD8B326
:101AA000D9F804104A0802EB40004FF6EF72B0FB81
:101AB000F1F0A0F11001914200F28C814FF6F0712B
:101AC0000140C0F34200084423E000BF0020024070
:101AD0000CED00E00003FA05041002400000424251
:101AE000B71DC10400440040083002400400004813
:101AF00020000048BC4D78B1D9F804104FF6EF72C1
:101B000000EB5100B0FBF1F0A0F11001914200F2A6
:101B10006181D9F80010C860D9F824100020C9E903
:101B20001A00002961D0CA0708D0D9F80020D9F8D6
:101B30002830546824F40034234353608A0708D5BE
:101B4000D9F80020D9F82C30546824F48034234389
:101B500053604A0708D5D9F80020D9F830305468C6
:101B600024F48024234353600A0708D5D9F80020C1
:101B7000D9F83430546824F4004423435360CA062F
:101B800008D5D9F80020D9F83830946824F4805466
:101B9000234393608A0608D5D9F80020D9F83C3051
:101BA000946824F40054234393604A0612D5D9F86C
:101BB0000020D9F84030546824F480141C43B3F555
:101BC000801F546006D1D9F84430546824F4C0040E
:101BD00023435360090608D5D9F80010D9F84820E6
:101BE0004B6823F400231A434A60D9F800104A686E
:101BF00022F490424A608A6822F02A028A600A68C7
:101C000042F001020A60C9F88400D8F80840086868
:101C100000070AD5DFF8EC814FF40011FFF722FB33
:101C2000002840F0A980D8F800100868400708D5BF
:101C3000DFF8D0814FF48001FFF714FB002840F05B
:101C4000A980202009229FED668BEB4676A4C9F877
:101C50007C00C9F880000020C9F8600089F878008D
:101C6000C9F8640041F28839B96941F00101B961EC
:101C7000B96901F00101019101992968644981F86C
:101C80001C034FF0805008604FF08041086820F43A
:101C90005C7008605F48C0F828904262026942F0B8
:101CA000010202610A6842F080020A605A4A4168F1
:101CB00011404160016821F070010160416821F02C
:101CC0008001416001AD55A000F0BCF8DFF854A1DF
:101CD0004FF00008B8F1010F0FD040F2E24657462E
:101CE0003EB120462946FEF7B9FA0198013E01C7E8
:101CF000F6E7CA4408F10108ECE70120FFF72CFAE7
:101D0000FFF7F6FC0646FFF721FBFFF7F1FC07465D
:101D100046A000F097F80120FFF71EFA44A05946AC
:101D2000FEF79CFA0098C828CDD13846FFF700FA94
:101D3000074630468846FFF7FBF902460B46384611
:101D40004146FEF7F2FD53EC182BFEF766FE024605
:101D5000264838A390ED000A90ED011A37A0B4EEA2
:101D6000410AF1EE10FAC8BF18460B4600F06AF8B7
:101D70001E20FFF7F1F9A6E7D8F8000050E8001F91
:101D8000404650F87C2B21F0800142E80013002BE4
:101D9000F2D118E0D8F8000050E8000FD8F8001091
:101DA00020F4907041E80002002AF3D1D8F8000036
:101DB00050E8021F404650F8802B21F0010142E814
:101DC0000213002BF2D1002189F878102021016044
:101DD000FFF7BDF90020C9E91A00FFF7B8F900BF05
:101DE0000000000080842E410CED00E0180000206F
:101DF00000000000000000000102030406070809BB
:101E0000100000204800002000440040F369FFEF6C
:101E100000E100E004000040F8BFFEFF6265676972
:101E20006E000000D0000020256600006F6B0000EF
:101E300025640000302C252E36660000312C252E1E
:101E4000366600000FB4054B10B503A9044A02988A
:101E500000F004F910BC5DF814FB00006D160008DA
:101E60000400002010B52DED028BB1EEC08A18EEF3
:101E7000100A20F00040C0F1FF40C00F0AD010EE61
:101E8000100A20F00040C0F1FF40C00F04BF012045
:101E900000F014F8B0EE480ABDEC028B10BD02E071
:101EA00008C8121F08C1002AFAD1704770470020E5
:101EB00001E001C1121F002AFBD1704701490860EF
:101EC00070470000080000202DE9FF5F82B000216C
:101ED000DDE90430020DDDF840B0034318D044F6CC
:101EE0001050A2F2FF3242431514119801281FD05E
:101EF000A5EB0B00401C5FEA000A4FF000064E4FB6
:101F0000DFF83891B046504615D5CAF1000413E009
:101F1000119801244AA3012801D16FEA0B0102980C
:101F2000119AC0E90031C0E9024206B0BDE8F09F55
:101F3000CBF10000DFE704460021404A491842EB9C
:101F40000450CDE9001012E0E00707D032463B46CE
:101F500040464946FEF7EFFC8046894632463B46FE
:101F600010461946FEF7E7FC06460F466410002CA3
:101F7000EAD1DDE90401DDE90023BAF1000F06DA58
:101F8000FEF7D9FC42464B46FEF7D5FC05E0FEF7CE
:101F900044FD42464B46FEF740FD04460E460022F5
:101FA000284BFEF7CDFD03D84FF0FF30014607E088
:101FB0000022254B20463146FEF716FCFEF7A8FD11
:101FC000102409E0002C0ADB0A220023FEF7C2FBE2
:101FD000039B30321A55641E50EA0102F2D1641C90
:101FE000039AC4F111031444119A012A03D0012267
:101FF00008430DD10AE0084304D000204FF0110B34
:10200000119072E7A3EB0B056D1E0DE05B4504DD3F
:102010004FF0000205F1010504E003DA4FF0000281
:10202000A5F10105002AECD002981199C0E902310E
:10203000C0E9004579E70000000014400000F03FCF
:10204000300000000000F0430000E03F30380A2874
:1020500001D2012070470020704700002DE9FF4F9A
:1020600095B09B468946064600250FE2252877D184
:1020700000242746F84A0121059400E0044316F89D
:10208000013F203B01FA03F01042F7D130782A28B3
:1020900011D06FF02F033078A0F13002092A16D842
:1020A000059A44F0020402EB820203EB4202104460
:1020B000761C0590EFE759F8042B0592002A03DA05
:1020C000504244F40054059044F00204761C3078E9
:1020D0002E2816D116F8010F44F004042A280DD03A
:1020E0006FF02F023078A0F13003092B09D807EBED
:1020F000870302EB4303C718761CF3E759F8047B08
:10210000761C30786C280FD006DC4C2817D0682855
:102110000DD06A2814D104E0742810D07A280FD189
:102120000DE044F400140AE044F4801401E044F4A7
:1021300040147278824202D104F58014761C761C19
:10214000307866280BD013DC582877D009DC0028BB
:1021500075D04528F6D04628F4D047281AD19DE1FD
:1021600018E0632835D0642879D0652812D195E12C
:10217000702873D008DC6728F1D069286FD06E28EA
:102180000DD06F2806D1B5E073282CD0752875D0F6
:10219000782874D05A46179990476D1C75E1C4F39E
:1021A0000250022809D003280DD0D9F800100428C5
:1021B0000DD00D6009F1040967E1D9F80010EA17A4
:1021C000C1E90052F6E7D9F800100D80F2E70D7072
:1021D000F0E719F8041B8DF8001000208DF80100BD
:1021E000EA46012003E059F804AB4FF0FF306107E5
:1021F0004FF0000102D40DE008F101018846B94218
:102200000FDA8045F8DB1AF808100029F4D108E04D
:1022100008F1010188468142FADB1AF8081000290A
:10222000F6D105985B46A0EB080721463846179A79
:1022300000F094FA284400EB080507E04DE029E19E
:102240000DE01AF8010B5A4617999047B8F10108AA
:10225000F7D25B4621463846179A13E142E00A223C
:102260000092C4F302524FF0000A022A08D059F833
:1022700004CB032A4FEAEC710AD00DE029E02AE0F2
:1022800009F1070121F00702F2E802C1914609E0D5
:102290000FFA8CFC4FEAEC71042A03D14FFA8CFC44
:1022A0004FEAEC71002907DA0A460021DCF1000C44
:1022B00061EB02012D2202E0220504D52B228DF8CC
:1022C0000420012203E0E20701D02022F7E7904634
:1022D00059E00A2102E010220DE010214FF0000A1F
:1022E00000910BE010224FF0000A44F0040408278C
:1022F000009203E008224FF0000A0092C4F3025259
:10230000022A05D059F804CB0021032A08D009E09D
:1023100009F1070121F00702F2E802C1914605E048
:102320001FFA8CFC042A01D10CF0FF0C4FF00008BE
:10233000220728D5702806D0009B83F0100353EAAB
:102340000A0305D00EE040228DF80420012208E0A7
:102350005CEA010206D030228DF804208DF80500D9
:1023600002229046009B83F0080353EA0A030AD135
:102370005CEA010201D1620705D530228DF8042004
:102380004FF001087F1E582804D034A003900EA8F7
:1023900002900DE036A0F9E753466046009AFEF73A
:1023A000D9F984460398825C0298401E029002701C
:1023B0005CEA0100F0D1029806A9081A00F1200A8F
:1023C000600702D524F4803400E00127574502DD80
:1023D000A7EB0A0000E0002000EB0A01009005983E
:1023E0004144401A0590E00306D45B462146179A03
:1023F000059800F0B3F90544002706E001A85A4605
:10240000C05D179990476D1C7F1C4745F6DBE003C4
:102410000CD55B462146179A059800F09FF90544B4
:1024200004E030205A46179990476D1C0099481EC9
:1024300000900029F5DC08E0029802995A460078DD
:10244000491C0291179990476D1CBAF10001AAF13D
:10245000010AF1DC65E10000092801003031323366
:1024600034353637383961626364656600000000D0
:1024700030313233343536373839414243444546BA
:102480000000000000F058F90544761C3078002860
:102490007FF4ECAD19B02846BDE8F08F620700D498
:1024A000062709F1070222F0070CFCE80223E146A7
:1024B00003F000485FEA080C02D00FF2702C0DE028
:1024C0005FEA045C02D50FF2682C07E05FEAC47C87
:1024D00002D00FF2602C01E0AFF2700C4FF0FF3829
:1024E00023F00043CDF850C065280CD006DC452809
:1024F00009D046281DD047283DD13DE0662818D098
:1025000067287ED138E00021112F01DB112000E087
:10251000781CCDE9000106A90EA8FFF7D5FCDDE97E
:102520000F010E9A03910021009207F1010A049114
:102530004DE04FF000400097CDE9011006A90EA82C
:10254000FFF7C2FCDDE90F0203920E9B11990022F6
:10255000DDF80CA00093049211B9791C00EB010A7C
:10256000B7EB0A0004D4C0F1FF3007F1010A049070
:10257000AAEB0700019044E0012F00DA01270021B7
:10258000112F01DD112000E03846CDE9000106A938
:102590000EA8FFF799FCDDE90F010E9A03910021C7
:1025A00004910092BA4621070CD40399514500DAF0
:1025B0008A46BAF1010F05DD009AAAF10101515CCA
:1025C000302908D0B84202DA10F1040F06DA0121EE
:1025D000CDE9011015E0AAF10101E9E7002805DCC9
:1025E000049901440491AAEB000102E0411C514509
:1025F00000DD8A460499401A401C01904FF00040CB
:102600000290200704D40198504501DBCDF80480E6
:1026100000208DF84F0002980DF14F07B0F1004FE8
:1026200025D02B200E9002984FF0020800280CDADB
:10263000404202902D200E9007E00A210298FEF7FA
:1026400073F83031029007F8011DB8F10001A8F1CC
:102650000108F2DC02980028EFD1791E0E9808706C
:10266000307800F0200040F0450007F8020D12A875
:10267000C01B00F107081498007800B1012000EB9E
:102680000A01019801EBE07105984144401A401E8F
:102690000590E00306D45B462146179A059800F0A2
:1026A0005DF805441498007818B15A461799904778
:1026B0006D1CE00324D55B462146179A059800F06F
:1026C0004DF805441CE00498002807DBDDE9030110
:1026D000884203DD0098405C179901E0179930208B
:1026E0005A469047049805F10105401C0490019852
:1026F000401E019004D12E205A46179990476D1C18
:10270000BAF10001AAF1010ADDDC05E017F8010BBE
:102710005A46179990476D1CB8F10001A8F10108BD
:10272000F4DC5B462146179A0598ABE62D000000C5
:102730002B000000200000002DE9F0410446002598
:102740001E461746880404D405E039462020B047C9
:102750006D1C641EF9D52846BDE8F0812DE9F041D5
:10276000044600251E469046C80301D5302700E0E8
:102770002027880404D505E041463846B0476D1C43
:10278000641EF9D52846BDE8F081DDDDDDDDDCBB6A
:10279000BBDDDDDDDDDDDDDDDDDD98888888888879
:1027A00088887777777777888888855555566666DD
:1027B0006666666666666668888883333332222278
:1027C0002222222222222228888D0000F0270008BF
:1027D00000000020180000009E1E000808280008C5
:1027E00018000020401C0000AE1E00080000000081
:1027F00000000000000000000000000000000000D9
:082800001000000000127A0034
:040000050800018965
:00000001FF
